:100000000C9463000C948B000C948B000C943B05B7
:100010000C943B050C943B050C948B000C948B00CA
:100020000C948B000C948B000C948B000C947A0431
:100030000C948B000C948B000C948B000C948B0014
:100040000C9430040C948B000C94FE030C94D80395
:100050000C948B000C948B000C948B000C948B00F4
:100060000C948B000C948B000000000024002700EF
:100070002A0000000008000201000003040700003D
:1000800000000000000000000000250028002B00F8
:1000900000000000230026002900040404040404D6
:1000A0000404020202020202030303030303010227
:1000B00004081020408001020408102001020408F6
:1000C0001020B505870811241FBECFEFD8E0DEBF92
:1000D000CDBF11E0A0E0B1E0EEE8F7E102C005908D
:1000E0000D92AC32B107D9F722E0ACE2B1E001C029
:1000F0001D92A836B207E1F710E0C2E6D0E004C0D6
:100100002197FE010E94A809C136D107C9F70E94B4
:100110008E060C94BA0B0C940000CF92DF92EF92F3
:10012000FF92DC01A03282E0B8070CF03EC0B7FDC0
:1001300006C0A53BB1052CF0A4EBB0E002C0A0E0E6
:10014000B0E08091430228E830E06901C81AD10884
:1001500087FDD394CC0CDD1CCC0CDD1C0D2C000CCD
:10016000EE08FF088091440228E532E0281B31099F
:1001700087FD3395220F331F220F331FA901330F41
:10018000660B770B9A01AB012C193D094E095F09EB
:100190000E94FD0824EB30E040E050E00E94D308CC
:1001A000C20ED31EE41EF51ED601909142029C3071
:1001B00098F58091430248E850E0481B510987FDBB
:1001C0005395440F551F440F551FA417B5078CF0C6
:1001D0008091440228E532E0281B310987FD3395E0
:1001E000220F331F220F331FAD012A173B070CF4D8
:1001F000A90142505109440F551F2FB7F894892F78
:1002000090E0FC01EE0FFF1F8E0F9F1FFC01E95EC7
:10021000FD4F528341832FBFFF90EF90DF90CF902F
:100220000895CF92DF92EF92FF920F931F93CF9397
:10023000DF936C017A018B01C0E0D0E0CE15DF05C1
:1002400089F0D8016D918D01D601ED91FC9101905D
:10025000F081E02DC6010995892B11F47E0102C0C1
:100260002196ECCFC701DF91CF911F910F91FF90A5
:10027000EF90DF90CF900895FC01538D448D252F92
:1002800030E0842F90E0821B930B541710F0CF9630
:10029000089501970895FC01918D828D981761F062
:1002A000828DDF01A80FB11D5D968C91928D9F5FAD
:1002B0009F73928F90E008958FEF9FEF0895FC0158
:1002C000918D828D981731F0828DE80FF11D858D0B
:1002D00090E008958FEF9FEF0895FC01918D228D9E
:1002E000892F90E0805C9F4F821B91098F73992723
:1002F00008958AE791E00E946D0121E0892B09F4BD
:1003000020E0822F0895FC01848DDF01A80FB11D2C
:10031000A35ABF4F2C91848D90E001968F7399273B
:10032000848FA689B7892C93A089B1898C91806428
:100330008C93938D848D981306C00288F389E02DE9
:1003400080818F7D80830895EF92FF920F931F939A
:10035000CF93DF93EC0181E0888F9B8D8C8D981378
:1003600005C0E889F989808185FD24C0F62E0B8DB2
:1003700010E00F5F1F4F0F731127E02E8C8DE812D6
:100380000CC00FB607FCFACFE889F989808185FF98
:10039000F5CFCE010E948301F1CF8B8DFE01E80FD6
:1003A000F11DE35AFF4FF0820B8FEA89FB898081B0
:1003B000806207C0EE89FF896083E889F9898081BE
:1003C0008064808381E090E0DF91CF911F910F9155
:1003D000FF90EF900895CF93DF93EC01888D8823F1
:1003E000C9F0EA89FB89808185FD05C0A889B989A2
:1003F0008C9186FD0FC00FB607FCF5CF808185FF7D
:10040000F2CFA889B9898C9185FFEDCFCE010E94EA
:100410008301E7CFDF91CF91089580E090E0892BB1
:1004200029F00E94790181110C940000089590E058
:10043000FC01EE58FF4F3491FC01E255FF4F24912F
:10044000FC01E656FF4FE491EE2309F43BC0332351
:1004500039F1333091F038F43130A9F0323001F510
:1004600084B58F7D12C0373091F03830A1F0343030
:10047000B9F4809180008F7D03C0809180008F77D8
:10048000809380000DC084B58F7784BD09C08091B2
:10049000B0008F7703C08091B0008F7D8093B00053
:1004A000F0E0EE0FFF1FEA57FF4FA591B4918FB711
:1004B000F894EC91611103C020952E2301C02E2BDE
:1004C0002C938FBF0895CF93DF9390E0FC01E2550A
:1004D000FF4F2491FC01E656FF4F8491882361F180
:1004E00090E0880F991FFC01E859FF4FC591D49106
:1004F000FC01EA57FF4FA591B491611109C09FB764
:10050000F8948881209582238883EC912E230BC058
:10051000623061F49FB7F8943881822F80958323ED
:100520008883EC912E2B2C939FBF06C08FB7F89435
:10053000E8812E2B28838FBFDF91CF9108953FB79D
:10054000F8948091720190917301A0917401B0911F
:10055000750126B5A89B05C02F3F19F00196A11D76
:10056000B11D3FBFBA2FA92F982F8827820F911D49
:10057000A11DB11DBC01CD0142E0660F771F881F90
:10058000991F4A95D1F7089520917801309179010A
:100590002817390771F490917601809177019817A7
:1005A00041F0E0917601F0E0E45DFE4F808190E063
:1005B00008958FEF9FEF089508951F93CF93DF93D2
:1005C000DC015C962D913C915D972115310539F444
:1005D00081E090E013969C938E9312973DC05196C4
:1005E000ED91FC91529750969C915097892F809550
:1005F0001FB75E964C915E9741FB772770F941FDDE
:100600006095F8944081772311F0492B01C048236D
:100610004083E9012197F1F748E0508160FF02C073
:10062000592B01C058235083E9012197F1F76695B2
:10063000415099F7772321F090818923808303C06B
:100640008081982B90831FBF5C968D919C915D97C4
:100650000197F1F721E030E0C901DF91CF911F91BF
:10066000089520917801309179012817390771F4A4
:10067000809177012091760190E0805C9F4F821BF2
:10068000910960E470E00E947909089580E090E0AB
:100690000895209178013091790128173907B9F42C
:1006A0009091760180917701981789F0E091760119
:1006B000F0E0E45DFE4F80812091760130E02F5F15
:1006C0003F4F2F7333272093760190E008958FEFEB
:1006D0009FEF0895E0917801F0917901E817F9070B
:1006E00069F4A389B4899C918589809589238C9329
:1006F000109279011092780181E0089580E00895C8
:10070000089580E090E008950F931F93CF93DF93B7
:10071000EC0188819981009729F02A813B81261775
:10072000370788F48B016F5F7F4F0E94DB0A0097C9
:1007300061F0998388831B830A832C813D81232B5D
:1007400011F4FC01108281E001C080E0DF91CF91C3
:100750001F910F910895EF92FF920F931F93CF93E4
:10076000DF93EC017B018A01BA010E948403288196
:10077000398181110DC02115310519F0C9010E947F
:10078000430A198218821D821C821B821A8206C0AB
:100790001D830C83B701C9010E94B30BCE01DF9109
:1007A000CF911F910F91FF90EF9008950E94A50B9C
:1007B0001F920F920FB60F9211242F933F934F93D6
:1007C0005F936F937F938F939F93AF93BF93EF93B9
:1007D000FF938AE791E00E948301FF91EF91BF911F
:1007E000AF919F918F917F916F915F914F913F91C9
:1007F0002F910F900FBE0F901F9018951F920F9280
:100800000FB60F9211242F938F939F93EF93FF9323
:10081000E0918A01F0918B018081E0919001F0914B
:10082000910182FD12C09081809193018F5F8F733F
:1008300020919401821751F0E0919301F0E0E65885
:10084000FE4F958F8093930101C08081FF91EF91BE
:100850009F918F912F910F900FBE0F901F90189521
:100860001F920F920FB60F9211242F933F938F93E5
:100870009F93AF93BF9380916E0190916F01A09170
:100880007001B091710130916D0123E0230F2D377C
:1008900020F40196A11DB11D05C026E8230F029684
:1008A000A11DB11D20936D0180936E0190936F0186
:1008B000A0937001B09371018091720190917301C6
:1008C000A0917401B09175010196A11DB11D809395
:1008D000720190937301A0937401B0937501BF915D
:1008E000AF919F918F913F912F910F900FBE0F90DD
:1008F0001F9018951F920F920FB60F9211242F93ED
:100900003F934F935F936F937F938F939F93AF9397
:10091000BF93EF93FF9380916C0187FF05C0109206
:100920008500109284001BC020916C01022E000CE7
:10093000330B80913B0290E02817390784F48091B3
:100940006C01082E000C990BFC01EE0FFF1F8E0F9F
:100950009F1FFC01E95EFD4F808186FD15C08091DF
:100960006C018F5F80936C0120916C01022E000C52
:10097000330B80913B0290E028173907C4F4809133
:100980006C018C3064F113C080916C01082E000C56
:10099000990BFC01EE0FFF1F8E0F9F1FFC01E95EFC
:1009A000FD4F808160E08F730E941702D8CF809145
:1009B000840090918500049680349C4918F480E46A
:1009C0009CE905C0809184009091850004969093E5
:1009D0008900809388008FEF80936C013BC0209149
:1009E00084003091850080916C01082E000C990BD9
:1009F000FC01EE0FFF1F8E0F9F1FFC01E95EFD4FF4
:100A000081819281820F931F909389008093880047
:100A100080916C01082E000C990BFC01EE0FFF1F5A
:100A20008E0F9F1FFC01E95EFD4F808186FF12C083
:100A300080916C01082E000C990BFC01EE0FFF1F3A
:100A40008E0F9F1FFC01E95EFD4F808161E08F7377
:100A50000E941702FF91EF91BF91AF919F918F91EB
:100A60007F916F915F914F913F912F910F900FBEAA
:100A70000F901F9018951F920F920FB60F9211248E
:100A80002F933F934F935F936F937F938F939F9396
:100A9000AF93BF93EF93FF93E0917801F0917901C9
:100AA000309709F451C0968DA685B785858591FF4D
:100AB00004C09C91892329F447C09C91892309F0A3
:100AC00043C0A389B4899C918589809589238C939F
:100AD000868997890197F1F7608D718DA685B78515
:100AE000558538E020E0CB010197F1F7822F90E0A7
:100AF00095958795282F4C91452309F02068315012
:100B000091F7868D81FD20958091770190E0019687
:100B10008F73992730917601381749F0A0917701AA
:100B2000B0E0A45DBE4F2C938093770103C0868D07
:100B30008160868F828D938D0197F1F7A389B489A7
:100B40009C918589892B8C93FF91EF91BF91AF91F7
:100B50009F918F917F916F915F914F913F912F91D5
:100B60000F900FBE0F901F90189510927D0110925C
:100B70007C0188EE93E0A0E0B0E080937E0190934A
:100B80007F01A0938001B09381012AE031E030938E
:100B90007B0120937A0125EC30E03093870120938C
:100BA000860124EC30E0309389012093880120EC09
:100BB00030E030938B0120938A0121EC30E03093B8
:100BC0008D0120938C0122EC30E030938F01209333
:100BD0008E0126EC30E03093910120939001109229
:100BE0009301109294011092950110929601109227
:100BF0004802109247028093490290934A02A093C0
:100C00004B02B0934C028CE191E0909346028093AA
:100C1000450210925C0210925B0210925E021092EA
:100C20005D021092600210925F02109262021092B6
:100C30006102609163026E7F6D7F609363026695CF
:100C4000617081E0682789E00E94170261E089E015
:100C50000E946302E7EBF0E0E491E0935502E3EADF
:100C6000F0E0E491F0E0EE0FFF1FEA57FF4F8591AF
:100C70009491909357028093560260E088E00E941E
:100C800063028091630281FD04C061E088E00E94FC
:100C9000170288E080935102E6EBF0E0E491E093E4
:100CA0005202E2EAF0E0E491F0E0EE0FFF1FE057BD
:100CB000FF4F8591949190935402809353028091B9
:100CC0003B028C30A0F491E0980F90933B0280930C
:100CD000420290E0FC01EE0FFF1F8E0F9F1FFC01F0
:100CE000E95EFD4F88EB9BE09283818303C08FEF29
:100CF0008093420210923D0210923C0210923F02F9
:100D000010923E02109241021092400240E050E0E8
:100D10006AE271E08CE392E00C94AB03CF93DF9333
:100D200000D0CDB7DEB7789484B5826084BD84B539
:100D3000816084BD85B5826085BD85B5816085BDD6
:100D400080916E00816080936E001092810080918E
:100D50008100826080938100809181008160809316
:100D60008100809180008160809380008091B1003B
:100D700084608093B1008091B00081608093B00066
:100D800080917A00846080937A0080917A008260FA
:100D900080937A0080917A00816080937A008091BC
:100DA0007A00806880937A001092C100E0918A01F5
:100DB000F0918B0182E08083E0918601F0918701C0
:100DC0001082E0918801F09189018FEC808310926C
:100DD0009201E0918E01F0918F0186E08083E09195
:100DE0008C01F0918D01808180618083E0918C0184
:100DF000F0918D01808188608083E0918C01F09179
:100E00008D01808180688083E0918C01F0918D015B
:100E100080818F7D808361E08DE00E94630210926B
:100E2000600210925F0210925E0210925D021092B8
:100E30005C0210925B028DE991E0909362028093D4
:100E4000610290915102963108F057C02DEB30E0CD
:100E500030935C0220935B022BE931E030935E0219
:100E600020935D022CE231E03093600220935F0218
:100E700020916800983050F031E09E3008F430E066
:100E800081E001C0880F3A95EAF701C084E0822B27
:100E900080936800983038F09E3040F0963148F0EA
:100EA00020E030E008C02DE630E005C02BE630E061
:100EB00002C02CE630E0309359022093580298305B
:100EC00030F481E001C0880F9A95EAF70EC0292F0F
:100ED00030E09E3018F42850310902C02E503109FC
:100EE00081E001C0880F2A95EAF780935A02809129
:100EF0006102909162020197F1F780915F029091F7
:100F00006002892B21F1809178019091790122E092
:100F100085349207E1F0009711F00E946A038091F6
:100F200063028E7F809363021092770110927601A4
:100F300085E492E09093790180937801E0915802E2
:100F4000F0915902908180915A02892B808380917F
:100F500042028C3008F051C061E08EE00E946302D2
:100F600080914202E82FF0E09F01220F331FE20F31
:100F7000F31FE95EFD4F9081907C9E6090831092FC
:100F80004302109244026CE00E946D099CE0899F2C
:100F9000B001112440E050E09A01260F371FF901FB
:100FA000EE0FFF1F2E0F3F1FF901E95EFD4F9081ED
:100FB00096FD16C04F5F5F4F4C30510569F78111A8
:100FC0000FC01092800082E0809381001092850013
:100FD00010928400B19A80916F00826080936F00BC
:100FE000E0914202F0E0CF01880F991FE80FF91F4E
:100FF000E95EFD4F80818064808380E090E00E9404
:101000008D000E949F024B015C0198EBC92E9BE072
:10101000D92EE12CF12C0E949F02DC01CB01881912
:101020009909AA09BB09883E9340A105B10558F06A
:1010300021E0C21AD108E108F10888EE880E83E0A9
:10104000981EA11CB11CC114D104E104F10419F7CC
:1010500084E6882E912CA12CB12C85E492E00E948C
:101060003103892B09F450C085E492E00E944903C2
:101070008B3339F580913C0290913D02009719F035
:101080000E94970803C060E070E0CB016115710514
:1010900019F480E090E00AC0DB0124EB30E00E940C
:1010A0008D09A50194010E94D308C9010E948D00F9
:1010B00040E050E06AE271E08CE392E00E94AB0312
:1010C00023C089831A82E0904002F09041028FEFA2
:1010D000E81AF80AB7018CE392E00E94840388239F
:1010E00099F020913C0230913D0280914002909114
:1010F0004102BE016F5F7F4F820F931F0E94B30BAF
:10110000F0924102E09240020E940D02A6CF80912F
:101110003C0290913D020E94430A8CE191E0909341
:1011200046028093450285E492E00C946A031F9383
:10113000FC0199278827BC01E89411911032E9F34A
:10114000193010F01E30C8F31B3251F01D3249F433
:10115000689406C00E94BE08610F711D811D911D1B
:10116000119110531A30B0F33EF49095809570951C
:1011700061957F4F8F4F9F4F1F910895592F482F93
:10118000372F262F660F771F881F991F660F771F2F
:10119000881F991F620F731F841F951F660F771F8B
:1011A000881F991F0895052E97FB1EF400940E9436
:1011B000EA0857FD07D00E943C0907FC03D04EF413
:1011C0000C94EA0850954095309521953F4F4F4F2C
:1011D0005F4F089590958095709561957F4F8F4FE3
:1011E0009F4F08950E945E09A59F900DB49F900D9A
:1011F000A49F800D911D11240895B7FF0C94F2084F
:101200000E94F208821B930B08952F923F924F92F7
:101210005F926F927F928F929F92AF92BF92CF9286
:10122000DF92EF92FF920F931F93CF93DF93CDB78F
:10123000DEB7CA1BDB0B0FB6F894DEBF0FBECDBF07
:1012400009942A88398848885F846E847D848C84D8
:101250009B84AA84B984C884DF80EE80FD800C81E1
:101260001B81AA81B981CE0FD11D0FB6F894DEBFC4
:101270000FBECDBFED010895A1E21A2EAA1BBB1B24
:10128000FD010DC0AA1FBB1FEE1FFF1FA217B30752
:10129000E407F50720F0A21BB30BE40BF50B661F68
:1012A000771F881F991F1A9469F76095709580952C
:1012B00090959B01AC01BD01CF010895A29FB001A3
:1012C000B39FC001A39F700D811D1124911DB29F7A
:1012D000700D811D1124911D0895991B79E004C0A2
:1012E000991F961708F0961B881F7A95C9F7809565
:1012F000089597FB072E16F4009407D077FD09D0C8
:101300000E94940907FC05D03EF4909581959F4F6B
:101310000895709561957F4F08950E945E09B7FF0B
:101320000895821B930B0895AA1BBB1B51E107C0B4
:10133000AA1FBB1FA617B70710F0A61BB70B881F65
:10134000991F5A95A9F780959095BC01CD010895F4
:10135000EE0FFF1F0590F491E02D0994CF93DF93DA
:101360008230910510F482E090E0E0916602F09105
:10137000670220E030E0C0E0D0E0309711F140811A
:10138000518148175907C0F04817590761F4828105
:101390009381209719F09B838A832BC090936702D7
:1013A0008093660226C02115310519F042175307B4
:1013B00018F49A01BE01DF01EF010280F381E02DF4
:1013C000DCCF2115310509F1281B390B24303105FB
:1013D00090F412968D919C9113976115710521F0EF
:1013E000FB019383828304C090936702809366021B
:1013F000FD01329644C0FD01E20FF31F81939193EA
:10140000225031092D933C933AC0209164023091CF
:101410006502232B41F420910201309103013093A6
:101420006502209364022091000130910101211591
:10143000310541F42DB73EB74091040150910501AB
:10144000241B350BE0916402F0916502E217F3076B
:10145000A0F42E1B3F0B2817390778F0AC014E5F24
:101460005F4F2417350748F04E0F5F1F50936502FA
:10147000409364028193919302C0E0E0F0E0CF01D9
:10148000DF91CF9108950F931F93CF93DF93009730
:1014900009F48CC0FC01329713821282009166021B
:1014A000109167020115110581F420813181820FAD
:1014B000931F20916402309165022817390779F54E
:1014C000F0936502E093640271C0D80140E050E0FF
:1014D000AE17BF0750F412962D913C911397AD01B2
:1014E0002115310509F1D901F3CF9D01DA013383CB
:1014F000228360817181860F971F8217930769F499
:10150000EC0128813981260F371F2E5F3F4F318331
:1015100020838A819B8193838283452B29F4F093D6
:101520006702E093660242C01396FC93EE93129713
:10153000ED01499159919E01240F351FE217F307E0
:1015400071F480819181840F951F029611969C936E
:101550008E938281938113969C938E931297E0E0F1
:10156000F0E0D80112968D919C911397009719F095
:10157000F8018C01F6CF8D919C9198012E5F3F4F21
:10158000820F931F2091640230916502281739075A
:1015900069F4309729F4109267021092660202C033
:1015A000138212821093650200936402DF91CF913F
:1015B0001F910F910895A0E0B0E0E1EEFAE00C94E5
:1015C0000909EC01009721F4CB010E94AE09B8C0D3
:1015D000FC01E60FF71F9C0122503109E217F307C7
:1015E00008F4ACC0D9010D911C911197061717078B
:1015F000B0F00530110508F49FC0C80104978617A4
:10160000970708F499C002501109061B170B0193A4
:1016100011936D937C93CF010E94430A8DC05B01AF
:10162000A01AB10A4C01800E911EA0916602B091E1
:10163000670240E050E0E12CF12C109709F44AC019
:10164000A815B905D1F56D907C901197630182E0E2
:10165000C80ED11CCA14DB0480F1A3014A195B092E
:101660006A0182E0C80ED11C1296BC9012971396A4
:10167000AC91B5E0CB16D10440F0B282A383518384
:101680004083D9016D937C930AC00E5F1F4FC30145
:10169000800F911FF90191838083EB2DFA2FE114C4
:1016A000F10431F0D7011396FC93EE93129744C0E6
:1016B000F0936702E09366023FC08D919C91119771
:1016C0004817590708F4AC017D0112960D90BC91A2
:1016D000A02DB3CF80916402909165028815990581
:1016E000E1F446175707C8F4809100019091010179
:1016F000009741F48DB79EB74091040150910501C8
:10170000841B950BE817F907C8F4F0936502E09382
:101710006402F901718360830FC0CB010E94AE099E
:101720007C01009759F0A801BE010E94AA0BCE01CE
:101730000E94430AC70104C0CE0102C080E090E0CD
:10174000CDB7DEB7EEE00C94250981E090E0F89487
:101750000C94BA0BFB01DC0102C001900D924150C8
:101760005040D8F70895FB01DC0101900D92002054
:10177000E1F7089510E0C2E6D0E004C0FE010E9447
:0E178000A8092196C336D107C9F7F894FFCF08
:10178E0000006802800000000000A40111013C016D
:10179E00EB016D014B015F0100000000DD02110144
:0C17AE008103DC0231034903C402000087
:00000001FF
