:100000000C94E0000C9408010C9408010C94C904B1
:100010000C94C9040C94C9040C9408010C940801B4
:100020000C9408010C9408010C9408010C94080429
:100030000C9408010C9408010C9408010C9408011C
:100040000C94BE030C9408010C948C030C9466036E
:100050000C9408010C9408010C9408010C940801FC
:100060000C9408010C94080100407A10F35A00A087
:10007000724E18090010A5D4E80000E87648170071
:1000800000E40B54020000CA9A3B000000E1F505B1
:10009000000080969800000040420F000000A086FB
:1000A00001000000102700000000E803000000002D
:1000B0006400000000000A000000000001000000D1
:1000C00000002C76D888DC674F0823DFC1DFAE59EB
:1000D000E1B1B796E5E3E453C63AE651997696E87E
:1000E000E6C28426EB898C9B62ED407C6FFCEFBC02
:1000F0009C9F40F2BAA56FA5F490055A2AF75C932D
:100100006B6CF9676DC11BFCE0E40D47FEF520E662
:10011000B500D0ED902E0300943577050080841E45
:10012000080000204E0A000000C80C333333330FA0
:10013000986E12831141EF8D2114893BE65516CF3D
:10014000FEE6DB18D1844B381BF77C1D901DA4BB49
:10015000E424203284725E228100C9F124ECA1E5FE
:100160003D27000000080002010000030407000012
:1001700000000000000000000000250028002B0007
:1001800000000000240027002A00000000002300D7
:1001900026002900040404040404040402020202E8
:1001A000020203030303030301020408102040803A
:1001B000010204081020010204081020430527084A
:1001C00011241FBECFEFD8E0DEBFCDBF11E0A0E00D
:1001D000B1E0EEE4FEE102C005900D92A234B10759
:1001E000D9F722E0A2E4B1E001C01D92A239B20722
:1001F000E1F710E0CFEDD0E004C02197FE010E94AE
:10020000080DCE3DD107C9F70E9471060C941A0F54
:100210000C940000CF92DF92EF92FF920F931F9306
:10022000CF93DF936C017A018B01C0E0D0E0CE1553
:10023000DF0589F0D8016D918D01D601ED91FC911A
:100240000190F081E02DC6010995892B11F47E0102
:1002500002C02196ECCFC701DF91CF911F910F9182
:10026000FF90EF90DF90CF900895FC01538D448D67
:10027000252F30E0842F90E0821B930B541710F051
:10028000CF96089501970895FC01918D828D98175E
:1002900061F0828DDF01A80FB11D5D968C91928D6A
:1002A0009F5F9F73928F90E008958FEF9FEF089567
:1002B000FC01918D828D981731F0828DE80FF11D30
:1002C000858D90E008958FEF9FEF0895FC01918D4B
:1002D000228D892F90E0805C9F4F821B91098F7344
:1002E0009927089580EA91E00E94660121E0892B18
:1002F00009F420E0822F0895FC01848DDF01A80F0E
:10030000B11DA35ABF4F2C91848D90E001968F733D
:100310009927848FA689B7892C93A089B1898C915C
:1003200080648C93938D848D981306C00288F38922
:10033000E02D80818F7D80830895EF92FF920F934F
:100340001F93CF93DF93EC0181E0888F9B8D8C8D81
:10035000981305C0E889F989808185FD24C0F62EAF
:100360000B8D10E00F5F1F4F0F731127E02E8C8D48
:10037000E8120CC00FB607FCFACFE889F989808132
:1003800085FFF5CFCE010E947C01F1CF8B8DFE0160
:10039000E80FF11DE35AFF4FF0820B8FEA89FB89CA
:1003A0008081806207C0EE89FF896083E889F989CE
:1003B00080818064808381E090E0DF91CF911F9104
:1003C0000F91FF90EF900895CF93DF93EC01888D0C
:1003D0008823C9F0EA89FB89808185FD05C0A88949
:1003E000B9898C9186FD0FC00FB607FCF5CF8081CF
:1003F00085FFF2CFA889B9898C9185FFEDCFCE0119
:100400000E947C01E7CFDF91CF91089580E090E0DA
:10041000892B29F00E94720181110C94000008952B
:1004200090E0FC01EE59FE4F3491FC01E855FE4F7F
:100430002491FC01EC56FE4FE491EE2309F43BC0FD
:10044000332339F1333091F038F43130A9F03230C0
:1004500001F584B58F7D12C0373091F03830A1F0AE
:100460003430B9F4809180008F7D03C0809180008A
:100470008F77809380000DC084B58F7784BD09C0CD
:100480008091B0008F7703C08091B0008F7D809302
:10049000B000F0E0EE0FFF1FEA58FE4FA591B491B7
:1004A0008FB7F894EC91611103C020952E2301C001
:1004B0002E2B2C938FBF08953FB7F89480918C0119
:1004C00090918D01A0918E01B0918F0126B5A89BCE
:1004D00005C02F3F19F00196A11DB11D3FBFBA2FD6
:1004E000A92F982F8827820F911DA11DB11DBC0136
:1004F000CD0142E0660F771F881F991F4A95D1F7FB
:10050000089520918401309185012817390771F4ED
:100510009091830180918201981741F0E0918301CD
:10052000F0E0EE5BFE4F808190E008958FEF9FEF4B
:10053000089508951F93CF93DF93DC015C962D916E
:100540003C915D972115310539F481E090E01396D7
:100550009C938E9312973DC05196ED91FC915297CA
:1005600050969C915097892F80951FB75E964C911D
:100570005E9741FB772770F941FD6095F8944081C3
:10058000772311F0492B01C048234083E9012197CB
:10059000F1F748E0508160FF02C0592B01C0582399
:1005A0005083E9012197F1F76695415099F7772338
:1005B00021F090818923808303C08081982B9083D0
:1005C0001FBF5C968D919C915D970197F1F721E09B
:1005D00030E0C901DF91CF911F91089520918401EE
:1005E000309185012817390771F48091820120919B
:1005F000830190E0805C9F4F821B910960E470E072
:100600000E94E00C089580E090E00895209184011C
:100610003091850128173907B9F4909183018091B1
:100620008201981789F0E0918301F0E0EE5BFE4FC4
:1006300080812091830130E02F5F3F4F2F7333275C
:100640002093830190E008958FEF9FEF0895089520
:1006500080E090E008950F931F93CF93DF93EC0118
:1006600088819981009729F02A813B8126173707D5
:1006700088F48B016F5F7F4F0E943B0E009761F003
:10068000998388831B830A832C813D81232B11F45A
:10069000FC01108281E001C080E0DF91CF911F91C9
:1006A0000F910895CF93DF93EC0188819981009792
:1006B00011F00E94A30D198218821D821C821B82D8
:1006C0001A82DF91CF9108950E94050F1F920F9219
:1006D0000FB60F9211242F933F934F935F936F9315
:1006E0007F938F939F93AF93BF93EF93FF9380EA92
:1006F00091E00E947C01FF91EF91BF91AF919F919A
:100700008F917F916F915F914F913F912F910F90BA
:100710000FBE0F901F9018951F920F920FB60F9259
:1007200011242F938F939F93EF93FF93E091B00148
:10073000F091B1018081E091B601F091B70182FDA5
:1007400012C090818091B9018F5F8F732091BA019F
:10075000821751F0E091B901F0E0E056FE4F958F1D
:100760008093B90101C08081FF91EF919F918F919A
:100770002F910F900FBE0F901F9018951F920F9200
:100780000FB60F9211242F933F938F939F93AF93A4
:10079000BF938091880190918901A0918A01B091C5
:1007A0008B013091870123E0230F2D3720F4019630
:1007B000A11DB11D05C026E8230F0296A11DB11D84
:1007C000209387018093880190938901A0938A01E7
:1007D000B0938B0180918C0190918D01A0918E013D
:1007E000B0918F010196A11DB11D80938C01909352
:1007F0008D01A0938E01B0938F01BF91AF919F9116
:100800008F913F912F910F900FBE0F901F901895D1
:100810001F920F920FB60F9211242F933F934F9375
:100820005F936F937F938F939F93AF93BF93EF9358
:10083000FF938091860187FF05C01092850010927A
:1008400084001BC020918601022E000C330B809186
:10085000610290E02817390784F480918601082E00
:10086000000C990BFC01EE0FFF1F8E0F9F1FFC0168
:10087000E35CFD4F808186FD15C0809186018F5F0E
:100880008093860120918601022E000C330B80910B
:10089000610290E028173907C4F4809186018C30FA
:1008A00064F113C080918601082E000C990BFC01A5
:1008B000EE0FFF1F8E0F9F1FFC01E35CFD4F808139
:1008C00060E08F730E941002D8CF809184009091D5
:1008D0008500049680349C4918F480E49CE905C0A6
:1008E0008091840090918500049690938900809374
:1008F00088008FEF809386013BC020918400309167
:10090000850080918601082E000C990BFC01EE0FEA
:10091000FF1F8E0F9F1FFC01E35CFD4F81819281C1
:10092000820F931F909389008093880080918601A5
:10093000082E000C990BFC01EE0FFF1F8E0F9F1F5E
:10094000FC01E35CFD4F808186FF12C0809186012F
:10095000082E000C990BFC01EE0FFF1F8E0F9F1F3E
:10096000FC01E35CFD4F808161E08F730E94100207
:10097000FF91EF91BF91AF919F918F917F916F9177
:100980005F914F913F912F910F900FBE0F901F904D
:1009900018951F920F920FB60F9211242F933F9329
:1009A0004F935F936F937F938F939F93AF93BF9377
:1009B000EF93FF93E0918401F0918501309709F462
:1009C00051C0968DA685B785858591FF04C09C9101
:1009D000892329F447C09C91892309F043C0A38946
:1009E000B4899C918589809589238C938689978980
:1009F0000197F1F7608D718DA685B785558538E033
:100A000020E0CB010197F1F7822F90E09595879533
:100A1000282F4C91452309F02068315091F7868D9D
:100A200081FD20958091820190E001968F73992736
:100A300030918301381749F0A0918201B0E0AE5B9C
:100A4000BE4F2C938093820103C0868D8160868F78
:100A5000828D938D0197F1F7A389B4899C91858943
:100A6000892B8C93FF91EF91BF91AF919F918F91C3
:100A70007F916F915F914F913F912F910F900FBE9A
:100A80000F901F901895CF93DF931092A3011092AF
:100A9000A20188EE93E0A0E0B0E08093A4019093DF
:100AA000A501A093A601B093A7012AE031E03093FD
:100AB000A1012093A00125EC30E03093AD012093FB
:100AC000AC0124EC30E03093AF012093AE0120EC78
:100AD00030E03093B1012093B00121EC30E030934D
:100AE000B3012093B20122EC30E03093B5012093A2
:100AF000B40126EC30E03093B7012093B601109298
:100B0000B9011092BA011092BB011092BC0110926F
:100B10007202109271028093730290937402A093F8
:100B20007502B09376028CE191E09093700280930D
:100B30006F02109286021092850210928802109223
:100B4000870210928A021092890210928C021092EF
:100B50008B0260918D026E7F6D7F60938D02669532
:100B6000617081E0682789E00E941002E1EBF1E00A
:100B70002491EDE9F1E08491882399F090E0880FC9
:100B8000991FFC01E058FE4FA591B491FC01EA5871
:100B9000FE4F859194918FB7F894EC91E22BEC93F2
:100BA0008FBFE1EBF1E0E491E0937F02EDE9F1E04A
:100BB000E491F0E0EE0FFF1FEA58FE4F859194910B
:100BC0009093810280938002E0EBF1E02491ECE9C4
:100BD000F1E084918823C1F090E0880F991FFC0117
:100BE000E058FE4FC591D491FC01EA58FE4FA59103
:100BF000B4919FB7F8948881E22FE0958E23888383
:100C00008C91E823EC939FBF80918D0281FD04C0FD
:100C100061E088E00E94100288E080937B02E0EBB4
:100C2000F1E0E491E0937C02ECE9F1E0E491F0E0A2
:100C3000EE0FFF1FE657FE4F8591949190937E0231
:100C400080937D02809161028C30A0F491E0980F36
:100C50009093610280936C0290E0FC01EE0FFF1F05
:100C60008E0F9F1FFC01E35CFD4F88EB9BE092839E
:100C7000818303C08FEF80936C0210926702109201
:100C80006602109269021092680210926B02109232
:100C90006A0260E070E086E692E00E942B03811118
:100CA00005C086E692E00E9452030CC010926B02CF
:100CB00010926A026CE371E0809166029091670283
:100CC0000E94130F8AEC9BE0ADE2BEE380936202C8
:100CD00090936302A0936402B0936502DF91CF9179
:100CE0000895CF93DF93CDB7DEB7A7970FB6F894EB
:100CF000DEBF0FBECDBF789484B5826084BD84B55D
:100D0000816084BD85B5826085BD85B5816085BD06
:100D100080916E00816080936E00109281008091BE
:100D20008100826080938100809181008160809346
:100D30008100809180008160809380008091B1006B
:100D400084608093B1008091B00081608093B00096
:100D500080917A00846080937A0080917A0082602A
:100D600080937A0080917A00816080937A008091EC
:100D70007A00806880937A001092C100E091B001FF
:100D8000F091B10182E08083E091AC01F091AD017E
:100D90001082E091AE01F091AF018FEC8083109250
:100DA000B801E091B401F091B50186E08083E09153
:100DB000B201F091B301808180618083E091B20142
:100DC000F091B301808188608083E091B201F0915D
:100DD000B301808180688083E091B201F091B3011A
:100DE00080818F7D80834FE050E06AE271E080EA8D
:100DF00091E00E940A0142E050E06AE371E080EA7B
:100E000091E00E940A0191E4B92EB0927C00809199
:100E10007A00806480937A0080917A0086FDFCCF0E
:100E2000609178008091790070E0782B70939F0139
:100E300060939E01072E000C880B990B0E94D10A2B
:100E400020E030E040EA50E40E940C0B20E030E06B
:100E500040E85AE30E940C0B60939A0170939B0147
:100E600080939C0190939D012091620230916302D6
:100E700040916402509165020E946E0C609396014D
:100E8000709397018093980190939901209192011A
:100E90003091930140919401509195010E94020C70
:100EA00060939201709393018093940190939501C4
:100EB00020919001309191012F5F3F4F309391012C
:100EC00020939001243631050CF493C01BA21AA282
:100ED0001DA21CA21FA21EA220E030E048EC52E49A
:100EE0000E946E0C8E010F5F1F4F22E044E00E94B3
:100EF00049086C01009779F0FC0101900020E9F7A6
:100F000031977F01E81AF90AB701CE0182960E9453
:100F10002B03811105C0CE0182960E94520307C0A7
:100F2000FFA2EEA2B6018AA19BA10E94130F1A8212
:100F300019821C821B821E821D8263E070E0CE013A
:100F400001960E942B03811105C0CE0101960E94DB
:100F500052030AC083E090E09E838D836DE371E0CD
:100F600089819A810E94130F8EA19FA1CAA0DBA044
:100F7000ED80FE80C114D10409F464C00097A9F08B
:100F8000E80EF91EB701CE0101960E942B038823BB
:100F900009F458C029813A818D819E81B601820F62
:100FA000931F0E94130FFE82ED824D815E81698145
:100FB0007A8180EA91E00E940A0142E050E06AE30F
:100FC00071E080EA91E00E940A0189819A810E9481
:100FD000A30D8AA19BA10E94A30D109291011092D2
:100FE000900110929201109293011092940110922C
:100FF00095010E945C022B013C018AEFC82ED12C86
:10100000E12CF12C0E945C02DC01CB0184199509D2
:10101000A609B709883E9340A105B10558F021E023
:10102000C21AD108E108F10888EE480E83E0581E84
:10103000611C711CC114D104E104F10419F70E9470
:101040000602E3CECE0101960E945203AECF8091FC
:101050006602909167020E94A30D8CE191E090934B
:10106000700280936F0280918401909185018F5668
:10107000924071F4E0918202F0918302908180911C
:1010800084028095892380831092850110928401C7
:101090000895EF920F931F93CF93DF93E80147FDDD
:1010A00002C034E001C034E1E42F440FFF0BF7FF2E
:1010B00003C0F195E195F109E32E022F2E2FAE0129
:1010C0000E946908CE01DF91CF911F910F91EF909F
:1010D00008954F925F926F927F929F92AF92BF92CC
:1010E000CF92DF92EF92FF920F931F93CF93DF93F4
:1010F000CDB7DEB729970FB6F894DEBF0FBECDBFD0
:101100006A01122FB02E2BE3201720F0FF24F39456
:10111000F00E02C0BCE3FB2E0F2D27E0AE014F5FA7
:101120005F4F0E94F709AC018981982F9970913027
:1011300031F0E1FC06C0E0FE06C090E205C09DE291
:1011400003C09BE201C090E0EE2DE07183FF3CC044
:10115000911102C083E001C084E0811718F4212FAF
:10116000281B01C020E0E1110BC0F601822F30E204
:10117000882319F031938150FBCFC20ED11C20E09F
:10118000992329F0D6019C93F60131966F01C6018F
:101190000396E2FE0AC03EE4D6013C9341E4119678
:1011A0004C93119712963C9306C03EE6F6013083AD
:1011B00041E641833283FC01322F40E2332309F4BC
:1011C00042C041933150FACF82FF44C0911102C016
:1011D00083E001C084E0811718F4212F281B01C08F
:1011E00020E0E1110BC0F601822F30E2882319F0D4
:1011F00031938150FBCFC20ED11C20E0992329F0FE
:10120000D6019C93F60131966F01C6010396E2FE6A
:101210000BC039E4D6013C933EE411963C93119700
:1012200036E412963C9307C039E6F60130833EE679
:10123000318336E63283FC01322F40E2332319F04A
:1012400041933150FBCFFC01E20FF11D10828EEF74
:101250009FEFB7C0F1E0911101C0F0E06F2F70E097
:101260001416150624F49A012F5F3F4F02C021E0A7
:1012700030E0260F371FBB2029F06B2D70E06F5F29
:101280007F4F02C060E070E0260F371F612F70E0D3
:10129000261737071CF4121B212F01C020E03E2D1A
:1012A000387159F4D601322F60E2332319F06D936F
:1012B0003150FBCFC20ED11C20E0FF2331F0D6010C
:1012C0009C93B6016F5F7F4F6B01E1110BC0F6017C
:1012D000922F30E3992319F031939150FBCFC20E36
:1012E000D11C20E09F2D940F3A81782F7071A72E8A
:1012F00084FF03C0313309F49150191624F4993056
:1013000018F098E001C091E0E42F852F57FF02C04C
:10131000E0E080E06E2F782FE0E0F0E0AEE29A2E81
:101320003A01691A71082A01461A570A0B2D10E072
:101330001195019511096F3F8FEF780729F4D601B8
:101340009C92C60101966C014617570784F06616F9
:1013500077066CF47F01E40CF51CA1E0B0E0AC0F63
:10136000BD1FEA0EFB1ED7011196BC9002C090E390
:10137000B92E615071093196C60101967C01601742
:10138000710724F0D601BC926C01D5CF64177507A4
:1013900041F4363320F4353321F4A11002C081E347
:1013A000B82EF601B082F701822F90E2882319F05F
:1013B00091938150FBCFF701E20FF11D108280E085
:1013C00090E029960FB6F894DEBF0FBECDBFDF9137
:1013D000CF911F910F91FF90EF90DF90CF90BF9032
:1013E000AF909F907F906F905F904F9008952830BE
:1013F00008F027E03327DA01990F311D87FD91604E
:1014000000966105710539F432602E5F3D9330E33B
:101410002A95E1F708959F3F30F080387105610506
:1014200009F03C5F3C5F3D93913008F08068911D6E
:10143000DF93CF931F930F93FF92EF92192F987F13
:101440009695E92F96959695E90FFF27EE53FF4F56
:1014500099273327EE24FF24A701E701059008947C
:10146000079428F4360FE71EF81E491F511D660F1A
:10147000771F881F991F0694A1F70590079428F4F9
:10148000E70EF81E491F561FC11D770F881F991FB1
:10149000661F0694A1F70590079428F4F80E491FDB
:1014A000561FC71FD11D880F991F661F771F0694EF
:1014B000A1F70590079420F4490F561FC71FD81FA6
:1014C000990F661F771F881F0694A9F784911095BE
:1014D000177041F0D695C79557954795F794E794BF
:1014E0001A95C1F7E8E6F0E06894159015913591EA
:1014F0006591959105907FE27395E118F10A430B90
:10150000560BC90BD009C0F7E10CF11E431F561F43
:10151000C91FD01D7EF4703311F48A95E6CFE8948C
:10152000015030F0080F0AF40027021708F4202FAA
:101530002395022F7A3328F079E37D932A95E9F7F2
:1015400010C07D932A9589F60694979567953795EF
:1015500017951794E118F10A430B560BC90BD009E4
:1015600098F023957E9173957A3308F070E37C931D
:101570002013B8F77E9170617D9330F0839571E30D
:101580007D9370E32A95E1F71124EF90FF900F917E
:101590001F91CF91DF91992787FD90950895E89449
:1015A00009C097FB3EF490958095709561957F4FAB
:1015B0008F4F9F4F9923A9F0F92F96E9BB27939559
:1015C000F695879577956795B795F111F8CFFAF469
:1015D000BB0F11F460FF1BC06F5F7F4F8F4F9F4F9A
:1015E00016C0882311F096E911C0772321F09EE8F8
:1015F000872F762F05C0662371F096E8862F70E05E
:1016000060E02AF09A95660F771F881FDAF7880F37
:101610009695879597F908950E941F0B0C94900B4F
:101620000E94820B38F00E94890B20F0952311F064
:101630000C94790B0C947F0B11240C94C40B0E9416
:10164000A10B70F3959FC1F3950F50E0551F629F5A
:10165000F001729FBB27F00DB11D639FAA27F00D0B
:10166000B11DAA1F649F6627B00DA11D661F829F32
:101670002227B00DA11D621F739FB00DA11D621F17
:10168000839FA00D611D221F749F3327A00D611D34
:10169000231F849F600D211D822F762F6A2F112416
:1016A0009F5750409AF0F1F088234AF0EE0FFF1F49
:1016B000BB1F661F771F881F91505040A9F79E3FA0
:1016C000510580F00C94790B0C94C40B5F3FE4F34C
:1016D000983ED4F3869577956795B795F795E795F6
:1016E0009F5FC1F7FE2B880F911D9695879597F9FF
:1016F000089597F99F6780E870E060E008959FEF94
:1017000080EC089500240A94161617061806090698
:10171000089500240A941216130614060506089567
:10172000092E0394000C11F4882352F0BB0F40F4EF
:10173000BF2B11F460FF04C06F5F7F4F8F4F9F4F2F
:10174000089557FD9058440F551F59F05F3F71F0B1
:101750004795880F97FB991F61F09F3F79F0879518
:101760000895121613061406551FF2CF4695F1DFA1
:1017700008C0161617061806991FF1CF8695710531
:10178000610508940895E894BB2766277727CB0165
:1017900097F908952F923F924F925F926F927F92A6
:1017A0008F929F92AF92BF92CF92DF92EF92FF9271
:1017B0000F931F93CF93DF93CDB7DEB7CA1BDB0B1D
:1017C0000FB6F894DEBF0FBECDBF09942A883988C2
:1017D00048885F846E847D848C849B84AA84B984C9
:1017E000C884DF80EE80FD800C811B81AA81B981D5
:1017F000CE0FD11D0FB6F894DEBF0FBECDBFED01E9
:1018000008955058BB27AA270E94190C0C94900BDE
:101810000E94820B38F00E94890B20F039F49F3F20
:1018200019F426F40C947F0B0EF4E095E7FB0C946E
:10183000790BE92F0E94A10B58F3BA1762077307BF
:101840008407950720F079F4A6F50C94C30B0EF4E9
:10185000E0950B2EBA2FA02D0B01B90190010C01C0
:10186000CA01A0011124FF27591B99F0593F50F4D8
:10187000503E68F11A16F040A22F232F342F442730
:10188000585FF3CF469537952795A795F040539528
:10189000C9F77EF41F16BA0B620B730B840BBAF0F8
:1018A0009150A1F0FF0FBB1F661F771F881FC2F763
:1018B0000EC0BA0F621F731F841F48F48795779577
:1018C0006795B795F7959E3F08F0B0CF9395880F31
:1018D00008F09927EE0F9795879508950E94820C3E
:1018E0000C94900B0E94890B58F00E94820B40F0E0
:1018F00029F45F3F29F00C94790B51110C94C40B1F
:101900000C947F0B0E94A10B68F39923B1F355232C
:1019100091F3951B550BBB27AA2762177307840702
:1019200038F09F5F5F4F220F331F441FAA1FA9F398
:1019300035D00E2E3AF0E0E832D091505040E69586
:10194000001CCAF72BD0FE2F29D0660F771F881FE7
:10195000BB1F261737074807AB07B0E809F0BB0BDA
:10196000802DBF01FF2793585F4F3AF09E3F5105EE
:1019700078F00C94790B0C94C40B5F3FE4F3983E21
:10198000D4F3869577956795B795F7959F5FC9F7D7
:10199000880F911D9695879597F90895E1E0660F58
:1019A000771F881FBB1F621773078407BA0720F0D1
:1019B000621B730B840BBA0BEE1F88F7E09508953A
:1019C00097FB072E16F4009407D077FD09D00E94EC
:1019D000F40C07FC05D03EF4909581959F4F089537
:1019E000709561957F4F0895AA1BBB1B51E107C0FD
:1019F000AA1FBB1FA617B70710F0A61BB70B881F9F
:101A0000991F5A95A9F780959095BC01CD0108952D
:101A1000EE0FFF1F0590F491E02D0994CF93DF9313
:101A20008230910510F482E090E0E0919002F09114
:101A3000910220E030E0C0E0D0E0309711F1408129
:101A4000518148175907C0F04817590761F482813E
:101A50009381209719F09B838A832BC090939102E6
:101A60008093900226C02115310519F042175307C3
:101A700018F49A01BE01DF01EF010280F381E02D2D
:101A8000DCCF2115310509F1281B390B2430310534
:101A900090F412968D919C9113976115710521F028
:101AA000FB019383828304C0909391028093900200
:101AB000FD01329644C0FD01E20FF31F8193919323
:101AC000225031092D933C933AC020918E023091DF
:101AD0008F02232B41F420910201309103013093B6
:101AE0008F0220938E022091000130910101211577
:101AF000310541F42DB73EB74091040150910501E5
:101B0000241B350BE0918E02F0918F02E217F30750
:101B1000A0F42E1B3F0B2817390778F0AC014E5F5D
:101B20005F4F2417350748F04E0F5F1F50938F0209
:101B300040938E028193919302C0E0E0F0E0CF01E8
:101B4000DF91CF9108950F931F93CF93DF93009769
:101B500009F48CC0FC01329713821282009190022A
:101B6000109191020115110581F420813181820FBC
:101B7000931F20918E0230918F022817390779F533
:101B8000F0938F02E0938E0271C0D80140E050E0E4
:101B9000AE17BF0750F412962D913C911397AD01EB
:101BA0002115310509F1D901F3CF9D01DA01338304
:101BB000228360817181860F971F8217930769F4D2
:101BC000EC0128813981260F371F2E5F3F4F31836B
:101BD00020838A819B8193838283452B29F4F09310
:101BE0009102E093900242C01396FC93EE931297F9
:101BF000ED01499159919E01240F351FE217F3071A
:101C000071F480819181840F951F029611969C93A7
:101C10008E938281938113969C938E931297E0E02A
:101C2000F0E0D80112968D919C911397009719F0CE
:101C3000F8018C01F6CF8D919C9198012E5F3F4F5A
:101C4000820F931F20918E0230918F02281739073F
:101C500069F4309729F4109291021092900202C018
:101C60001382128210938F0200938E02DF91CF9124
:101C70001F910F910895A0E0B0E0E1E4FEE00C9424
:101C8000CE0BEC01009721F4CB010E940E0DB8C0E1
:101C9000FC01E60FF71F9C0122503109E217F30700
:101CA00008F4ACC0D9010D911C91119706171707C4
:101CB000B0F00530110508F49FC0C80104978617DD
:101CC000970708F499C002501109061B170B0193DE
:101CD00011936D937C93CF010E94A30D8DC05B0186
:101CE000A01AB10A4C01800E911EA0919002B091F1
:101CF000910240E050E0E12CF12C109709F44AC029
:101D0000A815B905D1F56D907C901197630182E01B
:101D1000C80ED11CCA14DB0480F1A3014A195B0967
:101D20006A0182E0C80ED11C1296BC9012971396DD
:101D3000AC91B5E0CB16D10440F0B282A3835183BD
:101D40004083D9016D937C930AC00E5F1F4FC3017E
:101D5000800F911FF90191838083EB2DFA2FE114FD
:101D6000F10431F0D7011396FC93EE93129744C01F
:101D7000F0939102E09390023FC08D919C91119756
:101D80004817590708F4AC017D0112960D90BC91DB
:101D9000A02DB3CF80918E0290918F028815990566
:101DA000E1F446175707C8F48091000190910101B2
:101DB000009741F48DB79EB7409104015091050101
:101DC000841B950BE817F907C8F4F0938F02E09392
:101DD0008E02F901718360830FC0CB010E940E0D4A
:101DE0007C01009759F0A801BE010E940A0FCE01A4
:101DF0000E94A30DC70104C0CE0102C080E090E0A4
:101E0000CDB7DEB7EEE00C94EA0B81E090E0F894F9
:101E10000C941A0FFB01DC0102C001900D9241509D
:101E20005040D8F70895FB01DC0101900D9200208D
:101E3000E1F7089510E0CFEDD0E004C0FE010E946C
:0E1E4000080D2196C03ED107C9F7F894FFCFD8
:101E4E00000092028000000000009D010A01350191
:101E5E00E401660144015801000000009A020A01E3
:101E6E0028039902EE0206038102566F6C746167B5
:101E7E00652044657669646572000D0A00563A2045
:021E8E00000052
:107E0000112484B714BE81FFF0D085E080938100F7
:107E100082E08093C00088E18093C10086E0809377
:107E2000C20080E18093C4008EE0C9D0259A86E02C
:107E300020E33CEF91E0309385002093840096BBD3
:107E4000B09BFECF1D9AA8958150A9F7CC24DD24C4
:107E500088248394B5E0AB2EA1E19A2EF3E0BF2EE7
:107E6000A2D0813461F49FD0082FAFD0023811F036
:107E7000013811F484E001C083E08DD089C08234E0
:107E800011F484E103C0853419F485E0A6D080C0E4
:107E9000853579F488D0E82EFF2485D0082F10E0AE
:107EA000102F00270E291F29000F111F8ED06801E7
:107EB0006FC0863521F484E090D080E0DECF843638
:107EC00009F040C070D06FD0082F6DD080E0C81688
:107ED00080E7D80618F4F601B7BEE895C0E0D1E017
:107EE00062D089930C17E1F7F0E0CF16F0E7DF06D8
:107EF00018F0F601B7BEE89568D007B600FCFDCFD4
:107F0000A601A0E0B1E02C9130E011968C91119780
:107F100090E0982F8827822B932B1296FA010C0160
:107F200087BEE89511244E5F5F4FF1E0A038BF0790
:107F300051F7F601A7BEE89507B600FCFDCF97BE46
:107F4000E89526C08437B1F42ED02DD0F82E2BD052
:107F50003CD0F601EF2C8F010F5F1F4F84911BD097
:107F6000EA94F801C1F70894C11CD11CFA94CF0C13
:107F7000D11C0EC0853739F428D08EE10CD085E9AC
:107F80000AD08FE07ACF813511F488E018D01DD067
:107F900080E101D065CF982F8091C00085FFFCCF94
:107FA0009093C60008958091C00087FFFCCF809118
:107FB000C00084FD01C0A8958091C6000895E0E648
:107FC000F0E098E1908380830895EDDF803219F02E
:107FD00088E0F5DFFFCF84E1DECF1F93182FE3DFCA
:107FE0001150E9F7F2DF1F91089580E0E8DFEE27F6
:047FF000FF270994CA
:027FFE00040479
:0400000300007E007B
:00000001FF